:020000040800F2
:10000000D00E00202D030008074C000869460008A8
:10001000054C00089B1F00087958000800000000EC
:10002000000000000000000000000000914E0008E9
:100030000D20000800000000AD4C0008934E0008A1
:100040004703000847030008470300084703000868
:100050004703000847030008470300084703000858
:100060004703000847030008470300089D1F0008D6
:100070004703000847030008470300084703000838
:10008000470300080000000047030008470300087A
:100090004703000847030008470300084703000818
:1000A0004703000847030008470300084703000808
:1000B00047030008470300084703000847030008F8
:1000C00047030008470300084703000847030008E8
:1000D00047030008470300084703000847030008D8
:1000E00047030008470300084703000847030008C8
:1000F000470300084703000847030008000000000A
:10010000000000004703000800000000470300084B
:1001100047030008000000004703000847030008E9
:100120004703000847030008470300084703000887
:10013000470300080000000000000000470300081B
:10014000470300084703000800000000000000000B
:10015000000000000000000000000000000000009F
:10016000000000000000000000000000470300083D
:10017000470300080000000000000000000000002D
:10018000000000004703000800000000000000001D
:10019000000000000000000000000000000000005F
:1001A00000000000000000004703000847030008AB
:1001B0004703000847030008470300080000000049
:1001C00000000000470300080000000000000000DD
:1001D000470300084703000800F002F800F096F813
:1001E0000AA090E8000C82448344AAF10107DA4592
:1001F00001D100F08BF8AFF2090EBAE80F0013F04E
:10020000010F18BFFB1A43F0010318472C710000BF
:100210004C710000103A24BF78C878C1FAD8520750
:1002200024BF30C830C144BF04680C607047000070
:100230000023002400250026103A28BF78C1FBD8EF
:10024000520728BF30C148BF0B6070476E2900F0CD
:10025000A982702900F0EB83662906F030836529B6
:1002600006F02D83672906F02A83612906F0298389
:1002700003681B0A28BF41F08001692900F05682FB
:10028000642900F05382752900F050826F2900F034
:100290007883782900F0B783E92900F01383E429F3
:1002A00000F01083F52900F00D83EF2900F075832D
:1002B000F82900F0B6830368DB0928BF41F080010C
:1002C000632901F0D780732901F0DC80E32901F074
:1002D000E780F32901F0EC80002070471FB506F09D
:1002E000E9FA9DE8030000F089F901F03BF9040008
:1002F0000020002106F0C8FA401C606000200021A8
:1003000006F0ACFAE0601FBD10B510BD01F0FCF8BE
:100310001146FFF7E3FF05F0DFFA01F0D9F903B466
:10032000FFF7F2FF03BC01F009FA0000094880471B
:1003300009480047FEE7FEE7FEE7FEE7FEE7FEE7C7
:10034000FEE7FEE7FEE7FEE704480549054A064BDF
:1003500070470000FD4E0008D9010008D0080020B9
:10036000D00E0020D00A0020D00A002070B506462A
:1003700000F028F9056806F10B0020F00704B442EC
:100380009CBF002070BD2B466A68BAB11068A042BD
:1003900010D304F1080188423CBF5068586007D36D
:1003A0005168101941601168091B016058601460A0
:1003B000101D70BD13465268002AE7D12146284619
:1003C00000F008F90028DED170BD70B50446051FA5
:1003D00000F0F8F80068002C14BF446870BD002CD1
:1003E00018BFAC423CBF20466468F8D301680A18C5
:1003F000AA4218BF456003D12A680546114401602E
:1004000028684119A1421CBF6C6070BD61686960B9
:1004100021680844286070BD53EA020C00F069802E
:100420002DE9F04B4FF00006002B1FBFB3FA83F508
:1004300003FA05F424FA05F65E4012BF1643B2FA39
:1004400082F502FA05F4C5F120051EBF22FA05FC6B
:1004500044EA0C04203556EA044C4FEA144418BF11
:10046000641C4FF000084FF00009904271EB030C40
:1004700039D3002919BFB1FA81F701FA07F6B0FAAA
:1004800080F700FA07F6C7F120071EBF20FA07FC25
:1004900046EA0C062037B6FBF4FCA7EB0507103F35
:1004A00007F01F0BCBF120060CFA0BFB2CFA06F61B
:1004B00044BFB3460026202FA4BF5E464FF0000B7A
:1004C0005BEA060C08BF4FF0010B19EB0B09ABFB05
:1004D000027C48EB0608C01B06FB02CC0BFB03CCDE
:1004E00071EB0C01C1E70B46024641464846BDE8A8
:1004F000F08B13B54FF000004FF00001AFF3008018
:10050000BDE81C40704700001CB50C46064B7B4400
:1005100069460090204600F05EF9044600206946D6
:1005200000F06CF920461CBDEB0200004FF0000209
:100530000429C0F0128010F0030C00F01B80CCF1F5
:10054000040CBCF1020F18BF00F8012BA8BF20F863
:10055000022BA1EB0C0100F00DB85FEAC17C24BFB7
:1005600000F8012B00F8012B48BF00F8012B704761
:100570004FF0000200B5134694469646203922BF3C
:10058000A0E80C50A0E80C50B1F12001BFF4F7AF87
:10059000090728BFA0E80C5048BF0CC05DF804EB69
:1005A000890028BF40F8042B08BF704748BF20F8D7
:1005B000022B11F0804F18BF00F8012B70477047D5
:1005C00070477047004870477408002070477047B4
:1005D0007047704738B504460A4600206946AFF3B5
:1005E0000080002808BF38BD02460099204600F070
:1005F000F1FA012038BD012000F07EBFF8B5AFF35D
:100600000080054600200C46102000BF0646A819B1
:10061000A0420DD9324669460020AFF300800700A2
:1006200008BF00F069FF0098A04218BF0546C41932
:10063000FFF7C8FF05600746F01D20F007004619C8
:10064000284600F00AF8B44208BFF8BDA21B3146A4
:100650003868BDE8F84000F0BDBA00210160C0E98B
:10066000011070471020704770B504468569006816
:10067000C10601D5302600E02026C00707D070BD96
:10068000D4E9012130469047206A401C20626D1E4B
:10069000F6D570BD70B5044685690078C00707D1EE
:1006A00070BDD4E9012120209047206A401C2062BF
:1006B0006D1EF6D570BD09684A0501D540B2704778
:1006C000C905FCD500B2704709684A0501D5C0B21A
:1006D0007047C905FCD580B2704770B50C46054619
:1006E000012A05D02878800600D5EA69002302E0B7
:1006F000012305E05B1C934202D2E05C0028F9D1A3
:10070000A869E618C01AA861286A18442862284611
:10071000FFF7AAFF04E0D5E9012114F8010B904787
:10072000B442F8D32846FFF7B5FF70BD2DE9F0417C
:100730000646002410687529314616A510D0FFF72B
:10074000BAFF002802DA404213A507E031688A07A1
:1007500001D512A502E0490704D511A5012401E045
:10076000FFF7B2FF00210A2206F1240709E0B0FBDF
:10077000F2FCB0FBF2F302FB1C0030307854184658
:10078000491C0028F3D123462A463046BDE8F041F3
:1007900000F07FBA000000002D0000002B000000D8
:1007A0002000000011680268006A530501D5087036
:1007B0000AE0D30501D5088006E0130603D5C21769
:1007C000C1E9000200E008600120704701694A1C8D
:1007D00002610878704700B58FB0CDE90131002182
:1007E000059105497944CDE903101146684600F0AA
:1007F00029F90FB000BD0000E5FFFFFF0A6802F80D
:10080000010B0A60704700002DE9FF5F15468A461C
:100810000446DFF8AC80F8440027D8E900103E46D3
:10082000CDE9001010E03AF816106A4602A800F070
:1008300043FE411C07D02178890603D5E2693918A7
:1008400091420DD80744761C2078800602D5E069D5
:10085000B84205DDAE42E6DB3AF816000028E2D1E8
:10086000A069C01BA0612046FFF7FEFED8E900107A
:10087000CDE90010002017E03AF818106A4602A8E7
:1008800000F01AFEB0F1FF3F81460BD000250DF1BC
:10089000080B05E0D4E901211BF8050090476D1C09
:1008A0004D45F7D308F10100B0428046E4DB206AF1
:1008B000384420622046FFF7EDFEBDE8FF9F0000B0
:1008C000226A00002DE9F0418046D21D22F0070285
:1008D0000025D2E90002F52915A614D0011E72F1F7
:1008E000000106DA0023D0EB030063EB020211A63D
:1008F00008E0D8F800108B0701D50FA602E04907E1
:1009000001D50EA601251146002408F1240704E0B4
:1009100000F07AF930323A55641C50EA0102F7D1FE
:100920002B46324621464046BDE8F04100F0B1B9C1
:10093000000000002D0000002B000000200000003F
:1009400030B4002100F1240408E002F00705D208C9
:10095000303542EA4372DB086554491C52EA03050C
:10096000F3D10468002310A2250707D5A40600D4FC
:1009700021B1C46901230DA2641EC46130BC00F022
:1009800088B910B5044621461068FFF79DFE02465F
:100990002046BDE810400023D2E7D21D22F0070117
:1009A000D1E90023CCE70000000000003000000087
:1009B000F0B40D460188090502D5214C7C4402E0C3
:1009C0001F4C7C440E34002100F1240608E002F0A4
:1009D0000F071209E75D42EA03721B097754491CAD
:1009E00052EA0307F3D102780023120704D5702DD1
:1009F00006D009B1022311342246F0BC00F049B9F7
:100A000001231034F8E770B504460D4621461068FE
:100A1000FFF75AFE024629462046BDE870400023F3
:100A2000C6E7D21D22F00703D3E90023C0E703681D
:100A3000126843F0200303600823C3610023B7E773
:100A4000846800002DE9F05F894604464FF0000AF3
:100A5000DFF874B1FB44C0F820A02046E168884765
:100A6000002874D0252806D0D4E901219047206AB7
:100A7000401C2062F1E700265F462046E168884777
:100A80002028054607DB312D05D2781910F8200CF7
:100A900008B10643F1E7B00701D526F00406C4F813
:100AA0001CA00027C4F818A02A2D09D0284604F05D
:100AB0000CFF38B304EB8708303DC8F8185019E034
:100AC00059F8041B204604EB87029161E1688847CE
:100AD000012F054618D1E069002820DA26F020060B
:100AE0001DE0D8F8180000EB800005EB400030381E
:100AF000C8F818002046E1688847054604F0E5FE7E
:100B00000028EED1012F0AD02E2D08D12046E16811
:100B100088477F1C0546022F46F02006C4DBA069EB
:100B2000002803DA404246F00106A061F00701D038
:100B300026F010066C2D0BD0682D09D04C2D39D025
:100B40006A2D35D0742D35D07A2D33D016E038E0AB
:100B5000E1682F4620468847B842054609D16C2FE8
:100B600026D04FF48060E16806432046884705465A
:100B700004E06C2F1AD04FF4807006430DB3A5F13A
:100B80004100192802D8203546F400664A46294615
:100B9000204626604E46FFF759FB80B101280BD056
:100BA000F61D26F0070000F1080956E74020E4E7AB
:100BB0008020D8E70020D6E706F104094DE7284653
:100BC00052E7206ABDE8F09F1468000000487047B3
:100BD0006C080020034640688C46002818BF8842F5
:100BE0003CBF03464068F8D318681844884207D0D1
:100BF0000CF1030020F00700001D411A521A0146B3
:100C0000081D0A60FFF7E1BB30B5B0F10A024FEAF8
:100C1000900E71F100034EEA817EB0EB0E0061EBA5
:100C200091014FEA101E4EEA017E10EB0E0041EBDF
:100C300011114FEA102E4EEA016E10EB0E0041EB3F
:100C400011214FEA104E4EEA014E10EB0E0041EB1F
:100C50001141401841F100014FEAD00040EA4170D3
:100C60004FEAD10110EB80054FEA810444EA907409
:100C700044EB01046D1944EB0404521BA3414FF0F3
:100C8000000348BF0A3200D530BD401C41F10001CD
:100C900030BD2DE9F0470D4699469246044600F1D5
:100CA00024080168880604D5E06921F0100121605C
:100CB00000E00120A84201DD471B00E00027A169F8
:100CC0007A1902EB0900081AA0612078C00602D444
:100CD0002046FFF7C9FC002608E0D4E901211AF8F4
:100CE00006009047206A401C761C20624E45F4DBCB
:100CF0002078C0060AD52046FFF7B6FC06E0D4E906
:100D0000012130209047206A401C2062381EA7F144
:100D10000107F4DC07E0D4E9012118F80500904749
:100D2000206A401C2062281EA5F10105F3DC204644
:100D3000FFF7B0FC2078000602D50220BDE8F0875E
:100D40000120FBE770472DE9FF4F0C461E464FF090
:100D5000FF378BB0D2E90001DDF860800A908A4647
:100D6000C1F30A5505B93D46002108464FF0000081
:100D7000BAF1000F00F4400005DA00EB80004FF4F8
:100D8000400101EA50004FEA9059B9F1010F00DD2E
:100D9000B9460A9850EA4A000ED044F61050A5F21F
:100DA000FF3545432F14B8F1000F1ED07542291EA0
:100DB0001EDDC9F100021CE0B8F1010F4FF0000088
:100DC00001D0302103E0F24305E02154401CB04241
:100DD000FBDB30460022002121540B99C1F808802A
:100DE000C1E900200FB0BDE8F08FBD1B6D1CDEE730
:100DF0004A4600DA694206A800F0F8FB06AB93E821
:100E0000070003AB83E8070050460A9900F0FDFC99
:100E10008DE80700A0F500501F3800900398002DC2
:100E20000ADD42F21F014A460844002303A9039049
:100E3000684600F066FF09E0A0F500504A461F38FA
:100E4000002303A90390684600F070FF8DE80700B7
:100E50000004000C03D04FF0FF30410800E01046C2
:100E6000B8F1000F03D00022009215461EE0751E57
:100E700005D4FFF7C9FE303262556D1EF9D5B34671
:100E80000122084302D000227F1C04E02078302891
:100E900001D100227F1E002A099784D01DE0112D68
:100EA00007DAFFF7B1FE303262556D1C50EA0102DD
:100EB000F5D1084302D00098C8B10EE00021681EA9
:100EC00005E0235C625C63542254401E491C81424D
:100ED000F7DBAB46A81B401E0990002004F80B006E
:100EE0000B98099AC0F80880C0E9002B7AE7112610
:100EF0004FF0000857E72DE9F04F88460446D21D11
:100F000022F0070191B0D1E90001CDE90A0104F016
:100F1000B4FC02460B98C00F01D02D2007E02068DA
:100F2000810701D52B2002E0202101EAC000032A1D
:100F3000099001D0072A05DB03464146204600F010
:100F400015FB0BE12078800601D5E06900E0062062
:100F5000B8F1650F814606D0B8F1660F18D0B8F128
:100F6000670F70D131E00020B9F1110F009001DB63
:100F7000112301E009F101030AAA01A90CA8FFF756
:100F8000E2FEDDE90C70002609F10105834647E029
:100F900001204B4600904FF000470AAA01A90CA877
:100FA000FFF7D1FEDDE90DB00C995D46002610B9C2
:100FB00009F101000D18B9EB050003D4C0F1FF36AB
:100FC00009F10105A5EB09002BE0B9F1010F01DAE8
:100FD0004FF001090020B9F1110F0090484601DDE2
:100FE000112300E003460AAA01A90CA8FFF7ABFEF3
:100FF000DDE90C704D4600268346207800070AD4B0
:10100000AB4500DA5D4601A8012D04DD411911F858
:10101000011C302907D04F4502DA17F1040F04DA1A
:10102000012082460FE06D1EEEE7002F02DCED1B73
:101030003E4403E0781CA84200DD7D1CB81B00F193
:10104000010A4FF000472078000703D4AA4501DBCE
:101050004FF0FF3A0021B7F1004F0DF143088DF832
:10106000431024D002202B23002F01DA7F422D23AE
:101070000A21021EA0F1010000DC5FB197FBF1FC28
:1010800097FBF1F201FB1C7C17460CF1300C08F8C1
:1010900001CDEEE7A8F1010003702188090501D513
:1010A000452100E06521A0F1010800F8011C099824
:1010B0000FA9A1EB0807FF1D00B10120411901EBA9
:1010C000EA70A1693844081A401EA0612078C00661
:1010D00002D42046FFF7C8FA099828B1D4E90121C3
:1010E0009047206A401C20622078C00622D5204606
:1010F000FFF7BAFA1EE0002E04DBB34502DD01A8BB
:10110000805D00E03020D4E901219047206A401C36
:101110002062761CAAF101005FEA000A0AD100F001
:1011200021FAC0680168405CD4E901219047206A37
:10113000401C2062281EA5F10105DCDC07E0D4E993
:10114000012118F8010B9047206A401C2062381ECC
:10115000A7F10107F3DC2046FFF79CFA032011B04A
:1011600041E600002DE9F04F04460D46D21D22F065
:10117000070089B0D0E900974846394604F07DFB66
:101180000246F80F01D02D2307E02068810701D522
:101190002B2302E0202101EAC0038DF820300BB19F
:1011A000012000E00020032A824601D0072A04DB48
:1011B0002946204600F0DAF93FE12078800601D484
:1011C0000D2500E0E569C7F30A560D2D49DA002127
:1011D0004FEA175B08464FF00000002F00F4400074
:1011E00007DA00EB80004FF4400100EBD07001EA19
:1011F00060008115012901DD4FF0FF3100224FEA27
:10120000850CBCF1180F06D31346ACF118004FF053
:101210008052C24003E04FF4801323FA0CF30CF128
:101220000C0CBCF1200F04D3ACF1200C09FA0CF02B
:1012300001E007FA0CF000294FF0004801DD18B971
:101240000FE00ED140450CD319EB02095F4121B9E3
:10125000404502D19F4329EA0209BBEB175F00D04A
:10126000761C2088000502D57B48784402E07A4845
:101270007844193808AA302302F80A30037C0AF1AE
:101280000101002E0AF1020A53546A4602DC4FF0B3
:10129000300101E04FF031014FF001088DF80010EE
:1012A00002D0A6F2FF3603E059EA470100D06B4EA8
:1012B000002D02DC2178090704D54FF002082E2109
:1012C0008DF80110C44600210BE0C7F303433F0132
:1012D000C35C491C6D1E02F80830052908F101089D
:1012E00001DA002DF1DC00210CE000EB1973491C40
:1012F0001B786D1E082902F808304FEA091908F119
:10130000010801DA002DF0DC21688B0602D516E019
:10131000A8F10108E04505DD02EB080313F8013CE4
:10132000302BF5D0B8F1000F09DD02EB080313F8FC
:10133000013C2E2B03D1090701D4A8F10108002D8F
:1013400005DD3E2102F808106D1E08F10108407C01
:10135000002E02F8080008F1010804DA2D20764278
:1013600002F8080002E02B2002F808000A214FF4DE
:101370007A70864208F101080BDB96FBF0F33033FC
:1013800002F8083096FBF0F308F1010800FB136641
:1013900001E0642E0CDB642096FBF0F3303302F89E
:1013A000083096FBF0F308F1010800FB136601E03A
:1013B0000A2E06DB96FBF1F0303002F8080008F147
:1013C000010896FBF1F001FB1060303002F80800D4
:1013D000A16908F1010808EB050202EB0A00081AEE
:1013E000A0612078C00602D42046FFF73DF9216AAB
:1013F00008AE01EB0A00206204E0D4E9012116F8EE
:10140000010B9047BAF1010AF7D22078C00602D545
:101410002046FFF729F96E4609E016F8010B3E2831
:101420000FD0D4E901219047206A401C2062B8F116
:101430000108F2D22046FFF72DF909B00320BDE8DC
:10144000F08F206A2844206203E0D4E90121302093
:1014500090476D1EEBD3F8E72260000002FCFFFF0F
:1014600010B5436913B1AFF3008001E0FFF735F920
:10147000012010BD127800F124010A7000224A7088
:101480000122EDE711684FF0FF32E9E710B543693B
:1014900013B1AFF3008001E0FFF7B6F9012010BDF2
:1014A000128800F1240182840022C2840122EDE727
:1014B00011684FF0FF32E9E770B516460C46054655
:1014C00000F048F8036893F80101012806D0FF2CCA
:1014D0000FD8185D68B101202C7070BDD3F80701DA
:1014E0003246214603F2071303442846BDE8704004
:1014F00018474FF0FF3070BD10B500F0F7F8BDE8A9
:10150000104000F0EEB870477546FFF75FFBAE463F
:1015100005006946534620F00700854618B020B5FF
:10152000FEF712FFBDE820404FF000064FF0000725
:101530004FF000084FF0000B21F00701AC46ACE87B
:10154000C009ACE8C009ACE8C009ACE8C0098D46E8
:101550007047000010B500F005F8001D10BD00BF79
:1015600029530000004870478C0800202DE9F04105
:101570001F46044603260168072A01F4006004DBC5
:1015800008B116A505E016A503E008B115A500E011
:1015900015A521F010002060A069C01EA0610FB148
:1015A000401EA0612046FFF75FF84FB1D4E901214A
:1015B00038469047206A401C2062C01C206206E02A
:1015C000206AFAE7D4E9012115F8010B9047761E4D
:1015D000F8D22046FFF75EF8BDE8F0814E414E009C
:1015E0006E616E00494E4600696E66002DE9F04757
:1015F000814616468AB0354878440DC88DE80D00FE
:1016000032487844801C03AC0DC884E80D0041F6D4
:101610009B300844372190FBF1F290FBF1F5A5F1E6
:10162000800501FB12041B3C02D56442012000E04E
:101630000020DFF898A080460027FA44AAF1BE0AED
:101640000EE0E0070AD03246684607EB4701012367
:101650000AEB810100F06AFB8DE8070064107F1C33
:10166000002CEED1194F7F44AE3F19E0E80715D0AA
:1016700007EB04100DF1180A90E80E008AE80E003E
:10168000C068F04201D1981908903246012306A99A
:1016900003A800F04BFB03AB83E807006D10641C4C
:1016A000002DE3D14FF0010332466946B8F1000F37
:1016B00003A802D000F025FB01E000F037FBC9E9E8
:1016C0000001C9F808200AB0BDE8F087245D0000D9
:1016D00010B50446AFF300802046BDE81040FEF789
:1016E0001EBE002801D000F029B8704710B50128AF
:1016F00005D0002103A000F027F8012010BD09A1AA
:10170000F8E7000053494752544D454D3A204F7574
:1017100074206F662068656170206D656D6F7279E9
:10172000000000003A2048656170206D656D6F72A1
:101730007920636F727275707465640001491820B6
:10174000ABBEFEE72600020070B505460C460A2037
:1017500000E06D1C00F052F835B128780028F8D16F
:1017600002E0641C00F04AF814B120780028F8D197
:10177000BDE870400A2000F041B800004FF0013C85
:1017800050F8042B51F8043B9A4221D1A2EB0C03F0
:10179000934313EACC1317D150F8042B51F8043BB0
:1017A0009A4215D1A2EB0C03934313EACC130BD14D
:1017B00050F8042B51F8043B9A4209D1A2EB0C03D8
:1017C000934313EACC13DBD04FF00000704700BF07
:1017D000D01A01BAB1FA81F101F0180122FA01F030
:1017E000CB40C1F12001DBB2C0B2C01A2CFA01F328
:1017F000D11A914311EAC311E6D1704708B5694681
:101800008DF800000320ABBE08BD5FEA400C08BFA6
:1018100091F0000F4FEA8C234FEAC12243EA515165
:101820004FEA1C5018BF00F5F0404FEA300018BFD7
:1018300041F000415FEA6C5C00F02980BCF1FF3FA1
:1018400008BF40F080407047130C06BF12044FF0F1
:10185000100C4FF0000C130E04BF12020CF1080C18
:10186000130F04BF12010CF1040C930F04BF92007C
:101870000CF1020CD30F04BF52000CF1010C114605
:101880004FF00002A0F11F00A0EB0C00704711F018
:10189000004F08BF704731F000413FF4D5AF0B0C4B
:1018A00006BF09044FF0100C4FF0000C0B0E04BFE4
:1018B00009020CF1080C0B0F04BF09010CF1040C18
:1018C0008B0F04BF89000CF1020CCB0F04BF490041
:1018D0000CF1010CCCF12003A0EB0C0022FA03F375
:1018E00002FA0CF241EA030100F10100704720F016
:1018F0007F4C80EA030023F07F47ACEB070303F53E
:101900007C5300F0004003F1FF032DE980494FEACA
:10191000154B09B44FEA144325EA0B4E24EA034859
:101920000FF2042606EB132749083E785FEA3202DD
:1019300003FB0667C7F5000707FB06F64FEA5437B7
:101940004FEAD64606F1020607FB066CCCF1005CB6
:101950004FEA1C472CEA074C07FB06F40CFB06F584
:1019600004EB15464FEA961634BF00204FF00040B6
:101970004FEAD13706FB07FC4FEA1C4C0CFB0BF778
:10198000D21B03FB0CF761EB07010CFB0EF7B0EB6E
:10199000074072EB17420CFB08F734BFA2EB07427B
:1019A000B2EB074261EB17414FEA0C444FEA910753
:1019B00006FB07FC4FEA1C4C0CFB0BF7B0EBC740D7
:1019C00072EB573203FB0CF734BFA2EBC742B2EB0A
:1019D000C74261EB57310CFB0EF7B0EBC70072EB5F
:1019E00057720CFB08F734BFA2EBC702B2EBC70279
:1019F00061EB5771039F4FEA816141EA921104EB59
:101A0000CC044FEAD1374FEA826206FB07FC42EA78
:101A100090124FEA80604FEA1C4C0CFB0BF7D21B74
:101A200003FB0CF761EB07010CFB0EF7B0EB074073
:101A300072EB17420CFB08F734BFA2EB0742B2EB84
:101A4000074261EB17414FEA8C554FEA910704EBCF
:101A50009C2406FB07FC4FEA1C4C0CFB0BF7B0EB7D
:101A6000C74072EB573203FB0CF734BFA2EBC742FF
:101A7000B2EBC74261EB57310CFB0EF7B0EBC7007E
:101A800072EB57720CFB08F734BFA2EBC702B2EB44
:101A9000C70261EB577115EB4C254FEA816141EAB2
:101AA00092114FEA82624FEAD13742EA901206FB66
:101AB00007FC44F100044FEA80604FEA1C4C0CFB29
:101AC0000BF7D21B03FB0CF761EB07010CFB0EF7C6
:101AD000B0EB074072EB17420CFB08F734BFA2EBE8
:101AE0000742B2EB074261EB174115EB1C154FEAB9
:101AF000813141EA92414FEA823242EA90424FEA12
:101B000080304FEA0C7644F1000448EA03434EEA81
:101B10000B484FF0000EB2EB080C71EB030724BF2B
:101B2000624639464EEB0E0E4FF0000B0018524144
:101B300049414BEB0B0BB2EB080C71EB03077BF14C
:101B4000000B24BF624639464EEB0E0E4FF0000BE1
:101B50000018524149414BEB0B0BB2EB080C71EBF7
:101B600003077BF1000B24BF624639464EEB0E0E95
:101B700051EA020718BF46F0010616EB0E7655F142
:101B8000000254F1000103D5BDE88901BDE80088D9
:101B9000BDE88901BDE80048B619524141EB010199
:101BA000A3F10103704780807F7E7D7C7B7A79780A
:101BB000777676757473727171706F6E6E6D6C6C12
:101BC0006B6A6A69686867666665646463636261B4
:101BD0006160605F5F5E5E5D5D5C5C5B5B5A5A5935
:101BE00059585857575656555555545453535252A1
:101BF0005251515050504F4F4F4E4E4D4D4D4C4CF9
:101C00004C4B4B4B4A4A4A49494948484847474741
:101C1000474646464545454444444443434343427E
:101C2000424242414141002B9C4630D477002BD0A8
:101C30001CB54FEA370703B44FF010004FF0100106
:101C4000BAF1000F06D0BCF1000FDCBF40F0080075
:101C500040F008014FF000000FBCBDE810400BF150
:101C6000010BBBF1010F08BF5FEA170722BF12F19A
:101C7000010211F101014FF0004143F1000300F0B6
:101C8000004043EA00007047F9D35708D0E746EA1E
:101C9000064613F1400F4FEA16461FDD13F1200FE1
:101CA000DFBF16430A46002120335B42BED0C3F19A
:101CB000200746EA064602FA07F74FEA164646EAC2
:101CC0000706C3F1200722FA03F201FA07F721FA07
:101CD00003F14FF0000342EA0702A7E746EA0206D3
:101CE00046EA06464FEA164646EA0106BCBF46EA01
:101CF0000646360C4FF000034FF000024FF0000193
:101D000094E72DE9804C9A46934670B491E83800E8
:101D100007C831EA400C48BF34EA430C03D5FFF74B
:101D2000E6FDFFF780FFF0BCBDE8008C2DE9804C9C
:101D30009A46934670B491E8380007C810F0804F77
:101D400008BF13F0804F03D100F005F8FFF76BFFD9
:101D5000F0BCBDE8008C20F07F4780EA030023F050
:101D60007F4C07EB0C03A3F57C5300F00040A3F17C
:101D7000FE0392F0000F00F0B38095F0000F00F02A
:101D800077802DE901494FEA11404FEA144621EAD4
:101D9000004800FB06FC24EA064708FB06F607FBA2
:101DA00008F800FB07F718EB06484CEB164C4FEA17
:101DB000124B18EB07484FEA15464CEB174022EA46
:101DC0000B4E0BFB06FC25EA06470EFB06F607FB4F
:101DD0000EFE0BFB07F71EEB064E4CEB164C4FF0BE
:101DE00000061EEB074E4CEB174B18EB0B0840F1AF
:101DF000000018EB0E0B58EB000840F100008F1AA2
:101E00004FF000013CBFC943661B14BFB5EB040C87
:101E100000213CBFC943F61B4FEA17444EEA8E0E21
:101E200027EA04454FEA1C4704FB07622CEA074CEB
:101E300005FB07F70CFB05F604FB0CFC16EB07464D
:101E400042EB174216EB0C4642EB1C421BEB06061C
:101E500058EB0202414146EA9E0601D5BDE80189E0
:101E6000B619524141EB0101A3F10103BDE801891B
:101E70004FEA14454FEA114724EA054621EA074C88
:101E800005FB07F406FB07F70CFB06F105FB0CFC52
:101E900011EB074144EB17444FEA124711EB0C4199
:101EA00044EB1C4422EA074C05FB07F206FB07F74C
:101EB0000CFB06F605FB0CFC16EB074642EB174243
:101EC00016EB0C4642EB1C456A1854F1000148BF62
:101ED0007047B619524141EB0101A3F1010370476C
:101EE00095F0000F37D04FEA11424FEA144721EA2C
:101EF000024624EA074C02FB07F106FB07F70CFB3E
:101F000006F402FB0CFC14EB074441EB17414FEACB
:101F1000154714EB0C4441EB1C4125EA074C02FB2E
:101F200007F506FB07F70CFB06F602FB0CFC16EBAD
:101F3000074645EB174516EB0C4645EB1C421219BC
:101F400051F1000148BF7047B619524141EB010100
:101F5000A3F1010370474FEA14454FEA114724EA01
:101F6000054621EA074C05FB07F106FB07F70CFBCA
:101F700006F24FF0000605FB0CFC12EB074241EBAA
:101F8000174112EB0C4251EB1C4148BF70479218AD
:101F900041EB0101A3F101037047FEE7014800F0A6
:101FA000EBBB0000040200200D4902688A4201D206
:101FB0000C4901E00B492031D2B21423083AB2FB9C
:101FC000F3F2436C02F01F0223F00303194481640F
:101FD00004498031C16401219140016570470000CE
:101FE00008040240000802400179074A02EB81021E
:101FF0004265054A4432491E826501F01F020121F3
:102000009140C16570470000FC080240704772B6FD
:10201000FEE700002DE9F047044690F858009CB018
:102020000E464FF00009012815D0012084F8580011
:1020300000251795189520684FF0A04840450ED10F
:10204000284F0097384602F01EFB8246206802F0B7
:102050001AFB60B10EE002201CB0BDE8F087E06D15
:1020600040F02000E06584F858500120F4E7BAF110
:10207000000F09D0E06D40F02000E0654FF001094D
:1020800084F858504846E7E71748326840F61F7111
:10209000002A826822F4604216D094F8383042EA6E
:1020A000433273681A438260D8F80820BB6802F094
:1020B000010203F001031A43E2D1B36832681A4304
:1020C00083688B431A430BE08260D8F80820BB6812
:1020D00002F0010203F001031A43D1D182688A435E
:1020E0008260CDE700010050000300502DE9F84F59
:1020F00000270446009790F85800DFF8E0930D465B
:10210000B846012811D0012684F85860206802F0F2
:10211000B6FA60B1E06D40F02000E0655FF00107C5
:1021200084F858803846BDE8F88F0220FBE7D5E9EF
:1021300000210C23206803EA91131844036B01F07B
:102140001F014FF01F0C0CFA01FCC2F3846223EA5A
:102150000C038A4013430363206802F090FA82461E
:10216000206802F088FA5AEA00003CD1AA6829687F
:102170002068B2F1004F37D002F089FA2068416937
:1021800021F00041416120686969C268C2F3C1025F
:10219000520091402A69042A31D000EB82002B685A
:1021A000026EDFF83CC303F0F84302EA0C020B4373
:1021B0001A4342F00041016620682A69A96900EBD0
:1021C0008200026E22F080720A430266297F226832
:1021D0002869012910D0002102EB8000026E22F054
:1021E00000720A4302667DE0002202F050FA206885
:1021F000416941F00041C5E74FF00071ECE7002173
:1022000002F033FA400320684FF0000172D002F070
:102210002CFA90FAA0F0B0FA80F1286842036ED050
:1022200090FAA0F0B0FA80F0814204D10022114669
:10223000206802F03BFA0121206802F016FA400300
:1022400020684FF001015DD002F00FFA90FAA0F083
:10225000B0FA80F12868420359D090FAA0F0B0FAA1
:1022600080F0814204D100220121206802F01EFA90
:102270000221206802F0F9F9400320684FF00201C2
:1022800048D002F0F2F990FAA0F0B0FA80F1286894
:10229000420344D090FAA0F0B0FA80F0814204D119
:1022A00000220221206802F001FA0321206802F0D6
:1022B000DCF9400320684FF0030133D002F0D5F978
:1022C00090FAA0F0B0FA80F1286842032FD090FA7B
:1022D000A0F0B0FA80F0814204D1002203212068EE
:1022E00002F0E4F92068816811F0010F22D0ACE01F
:1022F00000E004E002F0B9F9C0F384618DE7C0F3B7
:10230000846091E702F0B1F9C0F38461A2E7C0F301
:102310008460A6E702F0A9F9C0F38461B7E7C0F3CF
:102320008460BBE702F0A1F9C0F38461CCE7C0F39D
:102330008460D0E72A7B296850F8B03FC1F3120CC3
:1023400023EA0C0302F0180C664A22FA0CF20A4047
:1023500013430360E968494577D1286841031CD0DD
:1023600090FAA0F1B1FA81F1491C01F01F0109298D
:102370004FEA403132D8002912D000BF90FAA0F1C4
:10238000B1FA81F101F1010101F01F0106FA01F634
:1023900009D100BFC0F3846109E0C0F38461E3E7C1
:1023A000C0F38461EEE790FAA0F1B1FA81F101F196
:1023B000010101F01F0146EA816102D1C0F384608E
:1023C00003E090FAA0F0B0FA80F000F1010000F014
:1023D0001F0000EB400041EA005132E000290ED01E
:1023E00090FAA0F1B1FA81F101F1010101F01F01B0
:1023F00006FA01F606D100BFC0F3846106E0C0F31F
:102400008461F1E790FAA0F1B1FA81F101F10101E3
:1024100001F01F0146EA816102D1C0F3846003E04C
:1024200090FAA0F0B0FA80F000F1010000F01F0077
:102430002D4A00EB400002EB005041EA000141F060
:102440000071AA68206802F022F928482A6802422E
:102450003FF466AE26488168264B01F0E0719A424F
:1024600002D0254B9A421CD10B021AD42268B2F139
:10247000A04F7FF455AE826841F4000122F0E07273
:102480000A4382601D481E490068B0FBF1F0401C01
:1024900000EB4000800000E0401E00900028FBD1CF
:1024A0003EE6184D184BAA4207D1CD0105D422684B
:1024B0009A42F5D041F0807109E0144DAA42EFD163
:1024C0004A02EDD422689A42EAD041F4800182683F
:1024D00022F0E0720A43826022E6000000007F40A2
:1024E00000F0FF03FFFF0700000020FE000008804F
:1024F00000030050000021C31000C0901400002011
:10250000400D0300000052C700010050000084CBC2
:10251000F8B54FF0000504002E46009502D0E06D9E
:1025200010B107E00120F8BD204600F0EBF8266668
:1025300084F8586020688168C1F3407119B18168DE
:10254000684A1140816020688168C1F3007189B9CF
:102550008168654A114041F0805181606348644957
:102560000068B0FBF1F04000801C00E0401E0090CD
:102570000028FBD120688168C1F3007141B9E16D89
:1025800041F01001E165216E41F001012166012554
:1025900002F075F8E16DC90600D430B1E06D40F08D
:1025A0001000E06501252846F8BDE06D20F480703C
:1025B00040F00200E0652068806810F0010F11D142
:1025C0004FF0A04080684B4900F00100896801F09D
:1025D0000101084306D148486168826822F47C12F0
:1025E0000A438260E168E06B627F0843A16841EAC8
:1025F0004231084394F8241040EA0140012904D1F3
:10260000218D3E4A02EB41410843E16A29B101F4C0
:102610007871226B014342EA01002268D168384B8D
:1026200019400143D16020680169626B21F040616B
:1026300011430161206802F01EF870BB207F94F8FE
:102640003810800340EA41022168C86844F202035E
:1026500098431043C86020690028206801690AD0A7
:1026600041F480310161206850F8C01F22696FF386
:102670000D01114307E021F480310161206850F819
:10268000C01F6FF30D01016094F8400001280CD0C9
:102690002068016921F00101016160690128206859
:1026A000016B21F00F0111D013E0D4E911010843AF
:1026B000D4E913121143084321680A6940F2FC73FC
:1026C0009A43104340F001000861E6E7226A521E77
:1026D00011430163E06D20F0020040F00100E0656D
:1026E00061E70000C0FFFF5FC0FFFF7F1400002014
:1026F000400D030000010050000300500000FEFFE9
:102700000740F0FF10B598B00446142111A8FDF75A
:102710002FFF44216846FDF72BFF2068B0F1A04F42
:1027200026D14FF40040009080030F90684600F0DF
:102730005FFD08B1FFF76BFC0E48C16C41F400511E
:10274000C164C16C01F400511691C16C41F00101EA
:10275000C164C06C11A900F0010016900F20119007
:1027600003201290002013904FF0904000F014FAD4
:1027700018B010BD00100240F0B4016C0C68016884
:102780000D6890F8442002F01F06042202FA06F3B6
:10279000234211D06B070FD50B689B0603D40B683F
:1027A00023F004030B6090F8441001F01F018A40ED
:1027B000016C4A60016B1DE0022303FA06F7274211
:1027C0004FF0000C4FF0010218D0AF0716D50C687F
:1027D000A40605D40C6824F00A040C6080F82520B7
:1027E00090F8441001F01F018B40016C4B6080F8A1
:1027F00024C0C16A00291AD0F0BC08470823B3409E
:10280000234214D02B0712D50B6823F00E030B6064
:1028100090F84410036C01F01F0102FA01F15960B5
:10282000C26380F8252080F824C0416BE2E7F0BC49
:102830007047000070B504000CD02B4A21681420AA
:10284000914209D2294A0A44B2FBF0F08000606448
:1028500027480AE0012070BD234A52420A44B2FBD5
:10286000F0F080006064204808382064022084F87A
:1028700025000A6847F6F0708243D4E90203184342
:10288000D4E904352B431843A3691843E36918437B
:10289000236A1843104308602046FFF785FBA068B1
:1028A0000025B0F5804F00D16560A16C20790860EB
:1028B000D4E9130141606068401E032808D820460F
:1028C000FFF792FB606D0560D4E91601416002E0FC
:1028D0006565A565E565E563012084F8250084F854
:1028E0002450002070BD000008040240F8FFFDBF26
:1028F0000000024070B5044600F078FA0546601CFE
:1029000002D004484068044400F070FA401BA04222
:10291000FAD370BD080000202DE9F041040006D074
:10292000DFF8E88194F85C00002518B107E0012089
:10293000BDE8F08184F85D50204600F0EFF8206893
:10294000816921F01001816100F050FA06460327E9
:1029500005E000BF00F04AFA801B0A2811D8206861
:1029600080690007F6D42068816941F00101816126
:1029700000F03CFA06460BE000F038FA801B0A280B
:1029800006D9206E40F00100206684F85C70CEE726
:1029900020688069C007EFD02068816941F002019A
:1029A00081612168414502D1594960680860207CF5
:1029B00001282068816937D041F040018161607C45
:1029C00001282068816932D021F480418161A07C96
:1029D0000128206881692DD041F4805181612068EF
:1029E0008169A26821F44071114381612068816985
:1029F00021F0A40181612068016921F010010161C9
:102A0000E068012819D010B302281BD02068816922
:102A100041F0800181612068016941F0100101618C
:102A2000E06803280ED012E021F04001C6E741F42F
:102A30008041CBE721F48051D0E72068816941F0E3
:102A4000040103E02068816941F020018161207E5A
:102A5000E26940066FF0FF0101EB0222A0F1007075
:102A60001043226AA38A521E10430A0202EB034358
:102A700018432368D861A068B0F5407F10D1D4E92D
:102A80000A0301EB0321401E0843216B131303EBE0
:102A900001110843A18C02EB014108432168C86081
:102AA000206850F8C01FE26B114301601948206490
:102AB000216851F8802FA38E22F4F81242EA0342D3
:102AC0000A60144970316164216851F8802F94F8CC
:102AD000383022F0706242EA03620A600D49B03178
:102AE000A1640D49E1640C49D83121650A49F031EE
:102AF000616500F5547120C08842FCD3A565256648
:102B0000012084F85C00002012E70000006400400F
:102B10000065004000A4004088A5004010B598B0B2
:102B20000446142111A8FDF723FD44216846FDF752
:102B30001FFD17492068884228D180140090400367
:102B40000C90684600F054FB08B1FFF760FA11489A
:102B5000816D41F000718165816D01F00071169108
:102B6000C16C41F00101C164C06C11A900F0010009
:102B700016904FF4C0501190022012900020139034
:102B8000149009201590C00600F006F818B010BD8A
:102B900000640040001002402DE9F04FDFF8209261
:102BA000002301260324A9F1040B85B00F2709F1A6
:102BB000040AABF1040EFAE006FA03F52A407CD0D1
:102BC00091F804C00CF0030CBCF1010F02D0BCF171
:102BD000020F26D1D0F808C0CDF800C04FEA430C50
:102BE00004FA0CF8CDF810C0DDF800C02CEA080C8F
:102BF000CDF800C0D1F80C80DDF810C008FA0CF850
:102C0000DDF800C048EA0C08C0F80880D0F804C01D
:102C10002CEA050C0D79C5F300159D4045EA0C051D
:102C200045600D79ED43AD070ED0C5684FEA430806
:102C300004FA08FC25EA0C05D1F808C00CFA08FCD7
:102C40004CEA050CC0F80CC00D7905F00305022D07
:102C500016D1DD0800EB850CCDF808C0DCF820802B
:102C60005D074FEAD56C07FA0CF528EA05080D69EF
:102C700005FA0CF5DDF808C045EA0805CCF8205047
:102C800005684FEA430CCDF808C004FA0CFC25EAAD
:102C90000C0591F804C00CF00308DDF808C008FA30
:102CA0000CF848EA0508C0F800804D6815F4403F6C
:102CB0007CD0444DD5F860C000E077E04CF0010CCA
:102CC000C5F860C02D6E23F0030C05F001050095DA
:102CD0003D4D65440295AD684FEA837C4FEA1C7810
:102CE00007FA08FC25EA0C05B0F1904F06D0DFF892
:102CF000DCC0604505D14FF0010C20E04FF0000C26
:102D00001DE0DFF8CCC0604502D14FF0020C16E0A8
:102D1000DFF8C0C0604502D14FF0030C0FE0DFF8D0
:102D2000B8C0604502D14FF0040C08E0DFF8ACC039
:102D3000604502D14FF0050C01E04FF0060C0CFA93
:102D400008FC4CEA050C029DC5F808C0D9F80050F3
:102D5000CC46D1F8048095435FEAC82800D51543D6
:102D6000CCF80050DAF80050D446D1F804809543EE
:102D70005FEA882800D51543CCF80050DBF80050F6
:102D8000DC46D1F8048095435FEA883800D51543C6
:102D9000CCF80050DEF80050F446D1F8048095439A
:102DA0005FEAC83800D51543CCF800505B1C0A68B0
:102DB00032FA03F57FF400AF05B0BDE8F08F0000F4
:102DC00008040140001002400000014000040048D7
:102DD00000080048000C004800100048001400489B
:102DE0000AB18161704781627047000001488068C4
:102DF000704700000800002090F84120202A24D1CC
:102E000090F84020012A20D0012280F8402024227E
:102E100080F841200268136823F001031360026800
:102E2000136823F480531360026813680B43136024
:102E300001680A6842F001020A60202180F841100E
:102E4000002180F84010084670470220704790F833
:102E50004120202A22D190F84020012A1ED00122B0
:102E600080F84020242280F841200268136823F073
:102E7000010313600268136823F4706343EA0121BD
:102E8000116001680A6842F001020A60202180F89E
:102E90004110002180F8401008467047022070471A
:102EA00070B5040004D094F84100002510B106E08C
:102EB000012070BD84F84050204600F04FF82420D7
:102EC00084F841002068016821F001010160606818
:102ED000216820F0706008612068816821F4004159
:102EE0008160E0680128A06830D040F40440216887
:102EF0008860E0680228206841682AD021F40061D7
:102F0000416020684168144A114341602068C168EB
:102F100021F40041C160D4E904010843A16940EAF9
:102F200001202168C860D4E90701084321680860CE
:102F30002068016841F0010101606564202084F887
:102F40004100256384F84250002070BD40F40040E9
:102F5000CDE741F40061D3E700800002F0B597B0FF
:102F60000446142111A8FDF703FB44216846FDF730
:102F7000FFFA20492068884239D14020002500907E
:102F80000695684600F034F908B1FFF740F81A4C8E
:102F9000E06C40F00100E064E06C00F0010016908D
:102FA000E06C40F00200E064E06C122600F00200E9
:102FB000169004274FF40040CDE91265CDE914576F
:102FC000119011A9B006FFF7E7FD8020CDE9126549
:102FD000CDE91457119011A90848FFF7DDFDA06D48
:102FE00040F40010A065A06D00F40010169017B01A
:102FF000F0BD0000005400400010024000040048F2
:1030000002488168426811448160704708000020CE
:1030100010B50024032000F073F80F2000F008F82A
:1030200008B1012401E000F025F8204610BD0000A1
:1030300070B50E4E05460024706898B14FF47A7151
:10304000B1FBF0F00A490968B1FBF0F000F009FFAC
:1030500040B9102D06D200222946501E00F030F84B
:10306000356000E00124204670BD0000080000200B
:10307000140000200A4882B0016E41F0010101668F
:10308000016E01F001010091816D41F08051816577
:10309000806D00F08050009002B000F0A1B80000F8
:1030A00000100240002809DB00F01F0201219140BE
:1030B0004009800000F1E020C0F8001170470000D6
:1030C000F0B40E4B1B680C46C3F30223C3F1070593
:1030D000042D00D90425191D072901D2002300E081
:1030E000DB1E012606FA05F1491E214099409E404B
:1030F000761E16403143F0BC02F0D7BB0CED00E069
:10310000064900F0070208684FF6FF03184040EA3E
:103110000220034A10430860704700000CED00E0F5
:103120000000FA052B492C4B0A6832214A432B49EF
:1031300040B1B0F5007F086829D020F4C06040F4A9
:1031400080602CE00868C0F34120022804D051F8C8
:10315000800F20F4807022E0D1F8800020F480708D
:10316000C1F88000086820F4C06040F40070086076
:10317000B2FBF3F0401C00E0401E4A69520501D545
:103180000028F9D1486940050AD503207047C0F3EB
:103190004120022806D051F8800F40F4807008606A
:1031A00000207047D1F8800040F48070C1F88000A2
:1031B000086820F4C06040F400700860B2FBF3F0CF
:1031C000401C00E0401E4A695205DBD50028F9D1B9
:1031D000D8E700001400002040420F0000700040BB
:1031E0000248816841F4804181607047007000406E
:1031F0002DE9F8430446006800269D4D00035ED586
:10320000A86D0027C00008D4A86D40F08050A865C4
:10321000A86D012700F080500090DFF85892D9F88F
:10322000001041F48071C9F80010FFF7DFFD8046FF
:1032300006E000BFFFF7DAFDA0EB080002282BD85C
:10324000D9F80000C005F5D5D5F8900010F440700D
:1032500014D0216C814211D0D5F89000D5F890108F
:1032600020F4407041F48031C5F89010D5F89010EA
:1032700021F48031C5F89010C5F89000C00711D036
:10328000FFF7B4FD804641F2883907E0FFF7AEFD55
:10329000A0EB0801494501D903260BE0D5F89000C1
:1032A0008007F3D5D5F89000216C20F440700843D6
:1032B000C5F890001FB1A86D20F08050A865207857
:1032C000C00707D0D5F88800616820F003000843E4
:1032D000C5F888002078800707D5D5F88800A16850
:1032E00020F00C000843C5F888002078400707D577
:1032F000D5F88800E16820F030000843C5F8880060
:103300002078000707D5D5F88800216920F0C00093
:103310000843C5F888002078800607D5D5F88800CE
:10332000616920F440600843C5F8880020784006B1
:1033300007D5D5F88800A16920F440500843C5F8A6
:1033400088002078000607D5D5F88800E16920F4C8
:1033500040400843C5F888002088C00507D5D5F847
:103360008800216A20F440300843C5F8880020888E
:10337000800507D5D5F88800616A20F4402008430D
:10338000C5F88800208840050FD5D5F88800A16AC7
:1033900020F440100843C5F88800A06AB0F5801FEB
:1033A00003D1E86840F48010E860208800050FD55C
:1033B000D5F88800E16A20F440000843C5F8880089
:1033C000E06AB0F5800F03D1E86840F48010E8604F
:1033D0002088C0040FD5D5F88800216B20F04070FC
:1033E0000843C5F88800206BB0F1807F03D1E868FE
:1033F00040F48010E86020884FF0006180040ED512
:10340000D5F88800626B20F040601043C5F8880052
:10341000606B884203D1E86840F48010E86020883F
:1034200040040ED5D5F88800A26B20F04060104310
:10343000C5F88800A06B884203D1E86840F480108A
:10344000E860208800040FD5D5F88800E16B20F0F3
:1034500040500843C5F88800E06BB0F1805F03D1AD
:10346000E86840F48030E8603046BDE8F88300004A
:1034700000100240007000402DE9F0470E460500A4
:103480004FF0000725D0DFF8AC81D8F8000000F03D
:103490000F00B0420CD2D8F8001021F00F013143D8
:1034A000C8F80010D8F8000000F00F00B04210D1AA
:1034B0002968614CC80741F2883A5AD06868DFF839
:1034C0007C91032808D0022820682DD040050028D0
:1034D0002CDB0120BDE8F08720688001F9D5E06889
:1034E00000F00302E068C0F30310401C032A19D067
:1034F000534A00BFB2FBF0F0E268C2F30622504329
:10350000E268C2F34162521C5200B0FBF2F048453F
:1035100017D9A06810F0F00F0CD0880711D5A86853
:1035200040B10EE0474AE5E78003D0E700F0B6F887
:10353000484506D9A06820F0F00040F08000A06067
:103540008027A068696820F003000843A060FFF7A7
:103550004DFC814606E000BFFFF748FCA0EB0901E7
:1035600051453AD8A068696800F00C00B0EB810FB3
:10357000F2D12868810714D5400703D5A06840F42C
:10358000E060A0602878000705D5A06820F46050AE
:1035900040F4E060A060A068A96820F0F000084353
:1035A00004E0802F03D1A06820F0F000A060D8F8DC
:1035B0000010404601F00F01B14216D9016821F018
:1035C0000F0131430160FFF711FC074607E000BF20
:1035D000FFF70CFCC11B514501D903207AE7D8F84D
:1035E000000000F00F00B042F2D12878400705D566
:1035F000A068E96820F4E0600843A060287800072C
:1036000006D5A068296920F4605040EAC100A06096
:1036100000F044F8A1680C4AC1F30311515C01F0B9
:103620001F01C8400949086009480068BDE8F04723
:10363000FFF7FEBC002002400010024000B4C404AA
:103640000024F40000127A00247200081400002004
:10365000080000200548064900688968054AC1F34A
:103660000221515C01F01F01C84070471400002086
:103670000010024034720008054806490068896855
:10368000054AC1F3C221515C01F01F01C8407047D7
:10369000140000200010024034720008184910B5D0
:1036A0008868C0F381021748012A0BD08A6843104A
:1036B000C2F38102022A06D08A68C2F38102032A79
:1036C00003D0002010BD184610BDCA6802F00304E4
:1036D000CA68C2F30312521C032C02D0B0FBF2F0F2
:1036E00001E0B3FBF2F0CA68C968C2F30622504396
:1036F000C1F34161491C4900B0FBF1F010BD00006D
:10370000001002400024F4002DE9F84304007AD0B0
:103710002078F84DC00747D0A868E96800F00C0091
:1037200001F003010C2802D0082817D001E003297A
:1037300014D06068B0F5803F17D0B0F5A02F28688E
:1037400017D020F480302860286820F4802028607A
:103750006068E0B1FFF74AFB064614E02868800382
:1037600022D560680028D2D01EE0286840F480305E
:10377000EDE740F480202860F7E700BFFFF736FB55
:10378000801B642870D828688003F7D50CE0FFF709
:103790002DFB064605E000BFFFF728FB801B6428D1
:1037A000F0D828688003F7D4207880074CD5A86823
:1037B000E96800F00C0001F003010C2802D0042895
:1037C0000DD001E002290AD0E068002828682BD03B
:1037D00040F480702860FFF709FB064619E028686E
:1037E000400502D5E068002891D06868217C20F06F
:1037F000FE4040EA01606860BF480068FFF718FCBF
:10380000002800D120E072E1FFF7F0FA801B0228C7
:10381000B8D828684005F7D56868217C20F0FE40BC
:1038200040EA016068600FE020F480702860FFF7D4
:10383000DDFA064605E000BFFFF7D8FA801B022834
:10384000A0D828684005F7D42078000729D56069FA
:103850000028D5F8940013D040F00100C5F894007A
:10386000FFF7C4FA064606E090E000BFFFF7BEFA95
:10387000801B022886D8D5F894008007F6D510E082
:1038800020F00100C5F89400FFF7B0FA064604E006
:10389000FFF7ACFA801B022878D8D5F8940080078F
:1038A000F6D42078400761D5A86D0026C00008D462
:1038B000A86D40F08050A865A86D012600F08050EA
:1038C00000908E480168C90511D40168804641F412
:1038D00080710160FFF78AFA074604E0FFF786FA75
:1038E000C01B022852D8D8F80000C005F6D5A06841
:1038F000012815D00528D5F8900016D020F0010039
:10390000C5F89000D5F8900020F00400C5F89000AC
:10391000A06841F28838B8B1FFF768FA07460EE0B0
:10392000D5F8900040F00100F0E740F00400C5F841
:103930009000F5E7FFF75AFAC11B414526D8D5F8A4
:1039400090008007F6D50CE0FFF750FA074604E038
:10395000FFF74CFAC11B414518D8D5F890008007F5
:10396000F6D41EB1A86D20F08050A865207880069E
:1039700029D5A0690028D5F8980013D040F001009F
:10398000C5F89800FFF732FA064606E075E000BF7A
:10399000FFF72CFA801B02286FD8D5F89800800713
:1039A000F6D510E020F00100C5F89800FFF71EFAE8
:1039B000064604E0FFF71AFA801B02285DD8D5F806
:1039C00098008007F6D4E069F0B3A968C1F38101DB
:1039D00003295DD00228286820F08070286003D079
:1039E000FFF704FA04464BE0FFF700FA064604E04E
:1039F000FFF7FCF9801B02283FD828688001F7D424
:103A0000F4E908016FF00F0202EB01110843218A6B
:103A10005204490802EB4151A26841EA02210843DD
:103A2000217D4FF07E42490802EB41610843217B32
:103A300040EAC160E968324A11400843E8602868FA
:103A400040F08070286000E05EE0E86840F0807040
:103A5000E860FFF7CBF9044605E000BFFFF7C6F9C1
:103A6000001B022809D828688001F7D54CE000BF68
:103A7000FFF7BCF9001B022802D90320BDE8F88338
:103A800028688001F4D4E8681E490840E8603BE0FB
:103A90000128F3D0E868226A00F00301914226D1A0
:103AA000616A00F0F0020901103991421FD1A26A47
:103AB00000F4FE41B1EB022F19D194F82C2000F054
:103AC0007841B1EBC26F12D1218E00F4C0024908D7
:103AD0004905A1F50011914209D194F8341000F084
:103AE000C06049084906A1F1007181420CD0012053
:103AF000C4E70000001002400800002000700040F1
:103B00000C809F01FCFFEEFE0020B7E770B50400BB
:103B100009D0606A002540B125616561A56294F80D
:103B20005D0040B10CE0012070BD6068B0F5827F9F
:103B3000F4D0E561F2E784F85C50204600F05CF8D0
:103B4000022084F85D002068016821F040010160D6
:103B5000E1684FF4E062914201D9002001E04FF4A6
:103B60008050B1F5706F02D0914200D0A562A1885B
:103B7000228901F4827102F404421143227C02F092
:103B800002021143227D02F001021143228B02F452
:103B900000721143227F02F03802114394F8202072
:103BA00002F080021143228D02F400521143226878
:103BB0001160A169042202EA114194F8242000F462
:103BC000805002F01002114394F8342002F00802F1
:103BD0001143A28902F470621143014320684160DD
:103BE0002068C16921F40061C1612566012084F863
:103BF0005D00002070BD000070B586B0064614213F
:103C00006846FCF7B5FC2D4C336800252C49022092
:103C10000522A34232D10B6E43F480530B660B6E28
:103C200003F480530593CB6C43F00103CB64C96C60
:103C300001F001010591A0210091CDE90105CDE937
:103C4000035269464FF09040FEF7A6FF1E4C1D48F8
:103C500020600B2060601020C4E902058020C4E9C8
:103C60000405A561E56120462562FEF7E3FD08B184
:103C7000FEF7CDF97465A66206B070BD134CA34281
:103C8000FAD18B6D43F480438B658B6D03F48043D5
:103C90000593CB6C43F00203CB64C96C01F00201C5
:103CA00005914FF420410091CDE90105CDE9035282
:103CB00069460748FEF770FFDEE70000003001406C
:103CC00000100240080002400402002000380040BA
:103CD000000400482DE9F84F984616468A460446E7
:103CE000FFF784F8814694F85D00012820D1BAF1ED
:103CF000000F6FD0002E6DD094F85C00012817D013
:103D0000012784F85C70032084F85D000025256697
:103D1000C4F838A0A687E6872564A4F84450A4F820
:103D200046502565E564A068B0F5004F03D00CE06F
:103D30000220BDE8F88F2068016821F04001016091
:103D40002068016841F480410160206801684906EB
:103D500003D4016841F040010160E068B0F5E06F14
:103D6000606826D908B1012E1FD1A06B2168008898
:103D7000C86006E020688168890709D5A16B0988B9
:103D8000C160A06B801CA063E08F401EE0870CE048
:103D9000FFF72CF8A0EB0901414503D3B8F1FF3F31
:103DA00003D04BE0B8F1000F48D0E08F0028E1D1FC
:103DB00039E008B1012E33D1E08F0128A06B03D97F
:103DC00021680088C86010E021680078087314E05A
:103DD000E08725E043E020688168890713D5E18FFB
:103DE0000129A16B07D90988C160A06B801CA06361
:103DF000E08F801EECE709780173A06B401CA06384
:103E0000E08F401EE4E7FEF7F1FFA0EB090141451A
:103E100003D3B8F1FF3F03D010E0B8F1000F0DD08D
:103E2000E08F0028D7D14A464146204600F03FFFA8
:103E300008B120202066A06830B109E084F85D70E8
:103E400084F85C50032074E72068C16880680090A3
:103E500084F85D7004F85C5F60680028F3D001208E
:103E600067E710B5401EB0F1807F01D3012010BD7F
:103E70004FF0E02460610F21601701F016FD002073
:103E8000A06107202061002010BD000030B590F82F
:103E90003C20012A42D0012280F83C20CA688B686D
:103EA00022F440721A434B6822F480621A430B6872
:103EB00022F400621A430B6922F480521A434B69C0
:103EC00022F400521A430B6B22F480421A430B8BEC
:103ED00022F4702242EA0342CB6922F080521A4354
:103EE0000F4D03680024AB4202D00E4DAB4210D1FF
:103EF0000D8D22F4700242EA05520D6A22F08072A2
:103F00002A434D6A22F000722A43C96A22F0005205
:103F10000A435A6480F83C40002030BD022030BD86
:103F2000002C014000340140F0B590F83C20012AFB
:103F30003AD0012580F83C50022280F83D200368E9
:103F40005A689C68194E1A4FB34201D0BB4204D143
:103F500022F4700C4A6842EA0C02DFF858C002EA08
:103F60000C02D1F800C04CEA020CC3F804C002688D
:103F7000B2420DD0B2F1804F0AD00F4B9A4207D017
:103F80000E4B9A4204D0BA4202D00D4B9A4204D151
:103F9000896824F080031943916080F83D50002126
:103FA00080F83C100846F0BD0220F0BD002C014016
:103FB000003401408FFFFFFD000400400008004076
:103FC0000040014010B5040003D094F83D0010B14A
:103FD00007E0012010BD002084F83C00204600F0DE
:103FE00023F8022084F83D00211D206800F08EFF98
:103FF000012084F8480084F83E0084F83F0084F8EB
:10400000400084F8410084F8420084F8430084F8BA
:10401000440084F8450084F8460084F8470084F89A
:104020003D00002010BD000008B500680649884228
:1040300008D10648016E41F400610166006E00F48B
:104040000060009008BD0000002C014000100240FC
:1040500070B5044690F83C000025012814D00126D4
:1040600084F83C60022084F83D0022689068364B5A
:10407000184020F47F409060086870282ED010DC33
:1040800010F00F0F03D021E04FF0020070BD4FEA97
:104090002012072A1AD2DFE802F0525252524A384E
:1040A00040002A4BC21A984249D009DCB0F5805F23
:1040B0000DD0B0F5005F1CD0B0F1101F06D13EE06E
:1040C000102A3CD0202A3AD0502A38D0012584F832
:1040D0003D60002084F83C00284670BDCB68D1E9E3
:1040E0000121206800F070FF2068816841F07701AD
:1040F00009E0CB68D1E90121206800F065FF206864
:10410000816841F480418160E1E7CA6849682068BC
:1041100001F004F95021206806E0CA684968206867
:1041200001F00DF96021206800F058FFCFE7CA6860
:104130004968206801F0F2F840212068F4E722681D
:1041400001461046F0E7000088FFCEFF2000100077
:1041500010B586B0044614216846FCF709FA0F49E9
:104160002068884217D10E48C16C41F00101C1643A
:10417000C06C694600F0010005904FF4E0600090CB
:1041800002200190002002900390062004904FF03E
:104190009040FEF701FD06B010BD0000002C01406C
:1041A0000010024070B5044690F83C00002501283C
:1041B0000BD0012084F83C000C2A1ED007DC82B111
:1041C000042A12D0082A06D113E0022070BD102A5A
:1041D00017D0142A19D00125002084F83C00284665
:1041E00070BD206800F004FFF6E7206800F04EFF85
:1041F000F2E7206800F092FFEEE7206800F0D6FFBB
:10420000EAE7206801F01AF8E6E7206801F04EF8C6
:10421000E2E710B5040003D094F83D0010B107E0C8
:10422000012010BD002084F83C00204600F022F858
:10423000022084F83D00211D206800F067FE012067
:1042400084F8480084F83E0084F83F0084F8400079
:1042500084F8410084F8420084F8430084F8440064
:1042600084F8450084F8460084F8470084F83D004F
:10427000002010BD704770B5044690F83C00002641
:104280000D4601280BD0012084F83C000C2A4AD0AE
:1042900007DC82B1042A20D0082A06D131E00220AE
:1042A00070BD102A53D0142A63D00126002084F850
:1042B0003C00304670BD206800F09AFE206881699D
:1042C00041F0080181612068816921F00401816168
:1042D000206881692A69114311E0206800F0D6FE48
:1042E0002068816941F4006181612068816921F45D
:1042F00080618161206881692A6941EA02218161C6
:10430000D4E7206800F00AFF2068C16941F0080185
:10431000C1612068C16921F00401C1612068C169DF
:104320002A69114311E0206800F040FF2068C1694C
:1043300041F40061C1612068C16921F48061C161FB
:104340002068C1692A6941EA0221C161AEE720689B
:1043500000F074FF2068016D41F0080101652068DC
:10436000016D21F0040101652068016D2A69114386
:1043700011E0206800F09AFF2068016D41F40061AF
:1043800001652068016D21F4806101652068016D7F
:104390002A6941EA0221016588E710B5040003D0CB
:1043A00094F83D0010B107E0012010BD002084F812
:1043B0003C00204600F022F8022084F83D00211D38
:1043C000206800F0A3FD012084F8480084F83E0036
:1043D00084F83F0084F8400084F8410084F84200EB
:1043E00084F8430084F8440084F8450084F84600CB
:1043F00084F8470084F83D00002010BD704790F815
:104400008410012918D0012180F884102421C0F8DB
:10441000881001680A680B6823F001030B6022F022
:10442000005100224266036819602021C0F88810FC
:1044300080F88420104670470220704770B504460B
:1044400090F8840001281DD0012084F884002420E5
:10445000C4F8880020680568026822F00102026042
:104460002068826822F060620A438260204600F081
:1044700079FF206805602020C4F88800002084F8B7
:10448000840070BD022070BD70B5044690F88400B1
:1044900001281DD0012084F884002420C4F888005D
:1044A00020680568026822F00102026020688268C4
:1044B00022F060420A438260204600F053FF2068E9
:1044C00005602020C4F88800002084F8840070BDB6
:1044D000022070BD10B5040003D0D4F8880010B1DC
:1044E00007E0012010BD002084F88400204600F081
:1044F00027F82420C4F888002068016821F0010111
:104500000160A06A10B1204600F04EFF204601F085
:104510002FF80128E6D02068416821F490414160DD
:104520002068816821F02A0181602068016841F0DB
:10453000010101602046BDE8104000F099BF000075
:104540002DE9F04397B00446142111A8FCF710F8A8
:1045500044216846FCF70CF83D4920683D4C022692
:1045600000254FF44067884221D10820009004952F
:104570006846FEF73DFE08B1FDF749FDA06D40F429
:104580000020A065A06D00F400201690E06C40F0C3
:104590000400E064E06C119700F004001690052020
:1045A000CDE91450CDE9126511A92B4826E02B491D
:1045B000DFF8AC904FF00708884224D16846009697
:1045C0000295FEF715FE08B1FDF721FDA06D40F440
:1045D0000030A065A06D00F400301690E06C40F053
:1045E0000200E064E06CCDE9126500F00200169074
:1045F0001820CDE91458119011A94846FEF7CCFABD
:1046000017B0BDE8F08317498842F9D10420009023
:1046100003956846FEF7ECFD08B1FDF7F8FCA06DC8
:1046200040F48020A065A06D00F480201690E06C1E
:1046300040F00200E064E06CCDE9126500F0020099
:1046400011971495CDE9158011A94846D6E70000C9
:10465000004C0040001002400008004800440040A8
:104660000004004800480040FEE700EB8100006EB7
:1046700000F0F84070478068C0F3C0007047806861
:10468000C0F3800070478068C0F380007047042347
:1046900003EAD15310B518444369C1F30451072408
:1046A0008C40A3438A401343436110BD00EB81005B
:1046B000016E21F0004111430166704730B58BB0A7
:1046C000002408940994202168460A94FBF750FFBF
:1046D0001C484FF0A041042501604FF44031C0E96F
:1046E0000114C4600461C0E90545047744770121E1
:1046F000016280F82440C462046380F83840C463D7
:1047000080F84040FDF704FF08B1FDF780FC08A9E0
:104710000C480894FDF77EFC08B1FDF778FC0A48C8
:1047200000900620CDE901047F200594CDE9030522
:1047300069460448FDF7DAFC002801D0FDF767FC64
:104740000BB030BD18000020020030040D4808B541
:10475000816C41F004018164816C01F004010091DD
:10476000816C41F001018164806C002200F0010045
:10477000009011460B20FEF7A3FCBDE808400B207B
:10478000FEF790BC00100240114810B50F490160BF
:10479000002141608160C160017441748174102204
:1047A000426101220223C0E90623C0E90832826285
:1047B000C262C0E90C218163C163FEF7ADF8002835
:1047C00003D0BDE81040FDF722BC10BD00640040DE
:1047D000840000202DE9F04387B014216846FBF7E0
:1047E000C7FE3548C16C41F00401C164C16C01F0E1
:1047F00004010591C16C41F02001C164C16C01F05C
:1048000020010591C16C41F00101C164C16C01F04E
:1048100001010591C16C41F00201C164C06CDFF877
:104820009C8000F002004FF40054059000222146C5
:104830004046FEF7D5FA4FF0904600225021304610
:10484000FEF7CEFADFF8789044F2200700223946CE
:104850004846FEF7C5FA0125CDE90045002402943B
:10486000694640460394FEF797F950200090CDE941
:104870000154694630460394FEF78EF910204FF438
:104880008816CDE90006694602944046FEF784F991
:104890000720CDE90006694602944846FEF77CF9F8
:1048A0000097CDE90154694648460394FEF774F930
:1048B00007B0BDE8F0830000001002400008004887
:1048C00000040048134810B51149016012494160C5
:1048D00000210122C0E90212016141618161C161CF
:1048E0000162FEF7DDFA08B1FDF791FB00210948EE
:1048F000FEF782FA08B1FDF78AFB00210548FEF7B2
:10490000A6FA002803D0BDE81040FDF780BB10BD1B
:1049100000540040E8000020C285B240134810B5A2
:10492000114901604FF4827141604FF40041816090
:104930004FF4E061C160022101610121416149023E
:1049400081611021C1610021016207224162C0E939
:104950000A1201634163FFF7D9F8002803D0BDE8CC
:104960001040FDF754BB10BD003001403C01002059
:10497000134810B5114901604FF4827141604FF442
:10498000004181604FF4E061C16000214FF400728A
:104990000161C0E905122022C0E907210722416216
:1049A000C0E90A12016308214163FFF7AFF800284C
:1049B00003D0BDE81040FDF72ABB10BD0038004011
:1049C000A001002010B59CB0002419941A941794EB
:1049D0001894149415941C210DA81694FBF7C8FD87
:1049E00034216846FBF7C4FD37483649C0E9001456
:1049F0004FF6FF71C0E90241046144618461FFF731
:104A0000E1FA08B1FDF703FB4FF48050179017A9A6
:104A10002D48FFF71DFB08B1FDF7F9FA2A48FFF70B
:104A2000BCFC08B1FDF7F3FA2748FFF7F2FB08B129
:104A3000FDF7EDFA1494159414A923481694FFF782
:104A400073FA08B1FDF7E3FA6020CDE90D040F9485
:104A500010941194129400220DA91B481394FFF78F
:104A60000AFC08B1FDF7D3FA04220DA916480D94EB
:104A7000FFF798FB08B1FDF7CAFA08220DA9124802
:104A8000FFF790FB08B1FDF7C2FA00944FF4005015
:104A9000CDE9044003940003CDE908400194029459
:104AA000069407940A940B94694607480C94FFF700
:104AB000EDF908B1FDF7ABFA0348FFF749FB1CB06D
:104AC00010BD0000002C014064020020184810B501
:104AD000164901604FF4E1314160002181600C22F0
:104AE000C160C0E904128161C161016241628162F9
:104AF000FFF7F0FC08B1FDF78AFA00210C48FFF738
:104B0000C3FC08B1FDF783FA00210948FFF796FCC2
:104B100008B1FDF77CFA0648FFF771FC002803D0C6
:104B2000BDE81040FDF773BA10BD0000004C004016
:104B3000B0020020184810B5164901604FF4E13169
:104B40004160002181600C22C160C0E904128161D2
:104B5000C161016241628162FFF7BCFC08B1FDF7EF
:104B600056FA00210C48FFF78FFC08B1FDF74FFA09
:104B700000210948FFF762FC08B1FDF748FA064832
:104B8000FFF73DFC002803D0BDE81040FDF73FBA19
:104B900010BD00000044004044030020174810B539
:104BA0001549016016494160002181600C22C160F5
:104BB000C0E904128161C161016241628162FFF753
:104BC00089FC08B1FDF723FA00210C48FFF75CFCD3
:104BD00008B1FDF71CFA00210848FFF72FFC08B1C7
:104BE000FDF715FA0548FFF70AFC002803D0BDE8D9
:104BF0001040FDF70CBA10BD00480040D80300205B
:104C000040420F00FEE7FEE710B5094C094B0A4A87
:104C1000606008462160094901F044F8206801F00D
:104C20003CFC2068BDE81040002101F046BC0000BB
:104C3000000000201968000831650008987000081D
:104C400008B5009313460A4601460248006800F082
:104C5000F1FE08BD000000200FB42DE9F04106462A
:104C60004FF0FF340846FBF781FB054609AA089977
:104C7000FBF74AFC0C4F0B49386800F0CAFF06EB03
:104C8000860000EBC60082B22B460021386800F097
:104C900097FF2846FBF799FB2046BDE8F0015DF839
:104CA00014FB0000C6680008000000207047F8B53B
:104CB00015460E460B460092044600224FF4C051A2
:104CC00000F01AF888B9334600228021204600956A
:104CD00000F082F848B9334600224FF4C061204604
:104CE000009500F009F8002804D0206E40F0200064
:104CF00020660320F8BD00002DE9FE4F4FF0000AAA
:104D0000984617460E4604460C9D8DF804A0FEF703
:104D10006DF8411BA8EB0105FEF768F88146206895
:104D20004FF4C06B0C3002902A480068C0EBC00002
:104D300000EB8000000D6843009043E05E4506D123
:104D40002FB9029800788DF804009DF80400B8F19E
:104D5000FF3F37D0FEF74AF8A0EB0900A84203D284
:104D600015B1009858B32BE02068416821F0E001AC
:104D700041606068B0F5827F0BD1A068B0F5004F4C
:104D800002D0B0F5806F04D12068016821F04001A5
:104D90000160A06AB0F5005F09D12068016821F4C4
:104DA000005101602068016841F400510160012058
:104DB00084F85D0084F85CA00320BDE8FE8F002528
:104DC000401E0090206880683040B842B6D1002074
:104DD000F3E70000140000202DE9F8431E46914639
:104DE00088460446089DFEF701F8401B351AFDF77A
:104DF000FDFF074625480068C0F3CB30684338E024
:104E0000701C37D0FDF7F2FFC01BA84203D215B1CA
:104E1000009860B32CE02068416821F0E001416017
:104E20006068B0F5827F0BD1A068B0F5004F02D06A
:104E3000B0F5806F04D12068016821F04001016065
:104E4000A06AB0F5005F09D12068016821F4005123
:104E500001602068016841F400510160012084F87C
:104E60005D00002084F85C000320BDE8F883002585
:104E7000401E00902068816838EA010004D00021BB
:104E80004945BDD10020F0E70121F9E714000020D9
:104E90007047FEF7B5B810B594B038216846FBF7F7
:104EA00067FB14210EA8FBF763FB0020FEF73AF91D
:104EB000012000900004019002200324CDE90704A2
:104EC0005521CDE909010B900C900D906846FEF735
:104ED0001BFC08B172B6FEE70F20CDE90E040020DE
:104EE00010901190129004210EA8FEF7C5FA002828
:104EF00001D072B6FEE714B010BD00000248016890
:104F000041F470010160704788ED00E02DE9F04345
:104F10000268264B264D274E274C4FF08049984279
:104F200007D0484505D0A84203D0B04201D0A042E6
:104F300003D122F070074A683A43204FDFF880C05F
:104F4000DFF8808098420DD048450BD0A84209D0A8
:104F5000B04207D0A04205D0B84203D0604501D08E
:104F6000404503D122F44075CA682A434D6922F0B6
:104F700080022A4302608A68C2620A68826298429A
:104F800007D0A04205D0B84203D0604501D04045CB
:104F900001D109690163012141610169C90703D098
:104FA000016921F001010161BDE8F083002C01409D
:104FB000000400400008004000340140004001406F
:104FC000004401400048014010B5846842EA0322D1
:104FD00024F47F440A432243826010BD8268034B5D
:104FE0001A400A4342F00701816070478FFFCFFFEC
:104FF0002DE9F043056A026A22F001020262436869
:1050000082691C4C25F0020522400C6822F0030244
:1050100014438A68194E2A43174D194FDFF864C0AC
:10502000DFF86490A84207D0B04205D0B84203D060
:10503000604501D0484506D122F00808CA6842EA16
:10504000080222F00402A84207D0B04205D0B842BC
:1050500003D0604501D0484505D14D6923F4407324
:105060001D438B692B43436084614968416302623D
:10507000BDE8F0838FFFFEFF002C014000340140AB
:10508000004001400044014000480140F0B5056A7D
:10509000026A22F01002026242688369194C1B4EB8
:1050A00023400C6823F4407343EA042425F02003D2
:1050B0008D6843EA0513144DA84201D0B04206D1D1
:1050C000CF6823F0800343EA071323F04003A8428C
:1050D0000AD0B04208D00E4DA84205D00D4DA842CE
:1050E00002D00D4DA84207D14D6922F4406242EA38
:1050F00085028D6942EA8502426084614968816364
:105100000362F0BDFF8FFFFE002C01400034014020
:10511000004001400044014000480140F0B5056AEC
:10512000026A22F4807202624368C269194C1B4E03
:1051300022400C6822F00302144325F400728D68AB
:1051400042EA0522144DA84201D0B04206D1CF68F0
:1051500022F4006242EA072222F48062A8420AD0C6
:10516000B04208D00E4DA84205D00E4DA84202D044
:105170000D4DA84207D14D6923F4405343EA05136E
:105180008D6943EA05134360C4614968C1630262E3
:10519000F0BD00008FFFFEFF002C014000340140F5
:1051A000004001400044014000480140F0B5056A5C
:1051B000026A22F4805202624268C369194C1B4E93
:1051C00023400C6823F4407343EA042425F400537D
:1051D0008D6843EA0533144DA84201D0B04206D190
:1051E000CF6823F4004343EA073323F48043A84203
:1051F0000AD0B04208D00E4DA84205D00D4DA842AD
:1052000002D00D4DA84207D14D6922F4404242EA36
:1052100085128D6942EA85124260C4614968016461
:105220000362F0BDFF8FFFFE002C014000340140FF
:1052300000400140004401400048014030B5056A8B
:10524000026A22F4803202624268036D114C2340EC
:105250000C681C4325F400330D8943EA05430E4DC9
:10526000A8420BD00D4DA84208D00D4DA84205D044
:105270000C4DA84202D00C4DA84204D14D6922F435
:10528000803242EA05224260046549688164036213
:1052900030BD00008FFFFEFF002C014000340140B4
:1052A00000400140004401400048014030B5046A1C
:1052B000026A22F4801202624268036D114D24F4E6
:1052C00000142B400D6843EA05230D8944EA055478
:1052D0000D4DA8420BD00D4DA84208D00C4DA84250
:1052E00005D00C4DA84202D00B4DA84204D14D6907
:1052F00022F4802242EA8522426003654968C16443
:10530000046230BDFF8FFFFE002C014000340140DD
:1053100000400140004401400048014010B5036ACC
:10532000046A24F001040462846924F0F00444EA6D
:10533000021423F00A020A438461026210BD10B510
:10534000036A046A24F010040462846923F0A00351
:1053500024F4704444EA023243EA0111826101629A
:1053600010BD000030B5416EB9B102689168926815
:10537000C1F342610B4B520F9C5CE50003F1080442
:10538000A25CB5FBF2F2A0F86A205A5C615CD20024
:10539000B2FBF1F1A0F8681030BD0121A0F86A104D
:1053A000F8E700001472000890F82810090706D5E5
:1053B00001684A68836B22F400421A434A6090F8FD
:1053C0002810C90706D001684A68C36A22F400326F
:1053D0001A434A6090F82810890706D501684A6880
:1053E000036B22F480321A434A6090F82810490770
:1053F00006D501684A68436B22F480221A434A604A
:1054000090F82810C90606D501688A68C36B22F493
:1054100080521A438A6090F82810890606D50168E0
:105420008A68036C22F400521A438A6090F82810AC
:10543000490611D501684A68436C22F480121A4368
:105440004A60416CB1F5801F06D101684A68836CDF
:1054500022F4C0021A434A6090F82810090606D5C3
:1054600001684A68C06C22F4002202434A60704717
:105470002DE9F84300260446C0F89060FDF7B6FC1D
:105480008046206800684FF0200500076FF07E47D7
:1054900013D54346002229042046009700F0A2F9C4
:1054A00058B1216851E8000F20F0800041E8000267
:1054B000002AF6D1C4F8885021E02068006840072F
:1054C00022D5434600224FF480012046009700F089
:1054D00089F9C8B1216851E8000F20F4907041E8C3
:1054E0000002002AF6D12068083050E8001F21F0A1
:1054F000010140E80012002AF5D1C4F88C5084F86C
:1055000084600320BDE8F883C4F88850C4F88C5048
:1055100044F86C6F666026760020F3E710B50268E9
:1055200052E8001F21F4907142E80013002BF6D1DD
:105530000E4B0268083252E8001F194042E800147E
:10554000002CF6D1C16E012908D1016851E8002F65
:1055500022F0100241E80023002BF6D12021C0F8F0
:105560008C100021C166416710BD0000FEFFFFEFF7
:105570002DE9F0410446016880682269E36910431F
:10558000626900251A431043DFF82CC20A688B4B6E
:105590001A4002430A6020684168E26821F44051E1
:1055A000114341602168A069614501D0226A10431E
:1055B0008A68834B1A4002438A602068C16A626A23
:1055C00021F00F011143C1627E4923687E488B425E
:1055D0000DD1D0F8880010F0030006D0012855D076
:1055E000022842D003283FD152E001203DE0774914
:1055F0008B420BD1D0F8880010F00C0035D0042875
:1056000033D0082840D00C282ED141E070498B427D
:105610000BD1D0F8880010F0300026D0102835D0FB
:10562000202831D030281FD132E06A498B420BD17B
:10563000D0F8880010F0C00017D0402826D080286D
:1056400022D0C02810D123E063450DD1D0F88800C6
:1056500010F4406009D0B0F5806F17D0B0F5006F3E
:1056600012D0B0F5406F13D010205B495B4F00267D
:105670004FF4004263453BD160B1022813D00428A7
:105680000BD0082872D10DE00220EEE70420ECE7F1
:105690000820EAE7FDF7DEFF01E0FDF7FFFF01006C
:1056A00001D17CE01146606A37F810206768B1FBD1
:1056B000F2F007EB4703834270D8B0EB073F6DD899
:1056C000002308461946FAF7A7FE090241EA1061CD
:1056D00002027808101871413A460023FAF79CFE3E
:1056E0003F4AA0F54071914258D82168C86056E001
:1056F000E3694FF6EF7893422CD109284ED2DFE8C8
:1057000000F00508114D0D4D4D4D1000FDF7A2FFA5
:1057100001E0FDF7B1FF010004D140E0FDF7BEFF5D
:10572000F9E71146606A37F81000B1FBF0F041006C
:10573000606801EB5001B1FBF0F0A0F110014145B0
:105740002CD84FF6F0710140C0F3420001432068AD
:10575000C16024E0092821D2DFE800F00509122009
:105760000E2020201100FDF775FF02E016E0FDF786
:1057700083FF010004D112E0FDF790FFF9E7114625
:10578000606A37F81000B1FBF0F1606801EB50017E
:10579000B1FBF0F0A0F1100141450AD9012501202B
:1057A000A4F86A0024F8680F2846E6602661BDE880
:1057B000F08180B299E7000000800040F369FFCFDC
:1057C000FFF4FF1100380140001002400044004087
:1057D00000480040004C00400024F400FC71000828
:1057E000FFFC0F002DE9F047994617460D46044689
:1057F0004FF00008089E33E0701C31D0FDF7F6FA38
:10580000A0EB0900B04218D8BEB120680168490772
:1058100026D5802D24D0402D22D0C169C943090747
:105820000DD4082505622046FFF778FEC4F8905095
:1058300084F884800120BDE8F0870320FBE7C0697D
:10584000C04300050CD421684FF400600862204674
:10585000FFF764FE2020C4F8900084F88480ECE711
:105860002068C06935EA000004D00020B842C3D0E7
:105870000020E0E70120F9E7FEE703B401984100CA
:10588000009850EAC12018BF04204A0D18BF40F00C
:10589000010040F2FF72B2EB515F08BF40F002001E
:1058A000012808BF052002B070470907090E00282B
:1058B00004DB00F1E02080F80014704700F00F00D6
:1058C00000F1E02080F8141D704730380A2801D21A
:1058D00001207047002070472DED0C8BA8B0FDF71C
:1058E00097FBFFF7D8FAFEF775FFFEF72FFFFEF7DD
:1058F000E5FEFEF749FFFEF7E5FFFFF739F8FFF792
:1059000061F8FFF717F9FFF749F9FFF7DFF8FFF73D
:1059100005F802A93248FFF777F99FED32CB9FEDEA
:1059200033DB9FED34BB0024B0EE4C8AF0EE6C8A82
:10593000B0EE4D9AF0EE6D9AB0EE4BAAF0EE6BAA77
:1059400002A800F06DF88DED008B2CA20A21012039
:10595000FFF782F98DED009B2BA20A210220FFF7B1
:105960007BF98DED00AB2BA20A210320FFF774F920
:10597000A2B20F2355212020FFF762F902A800F000
:105980003FF91420FCF7B6FF641C1E2CD8DB1E2444
:1059900002A800F045F88DED008B18A20A21012025
:1059A000FFF75AF98DED009B17A20A210220FFF79D
:1059B00053F98DED00AB17A20A210320FFF74CF934
:1059C000A2B20F2355212020FFF73AF902A800F0D8
:1059D00017F92820FCF78EFF641E002CD8DCA2E704
:1059E0003C01002000000060910D5C400000006060
:1059F00039B42F400000006039B4E03F616E673A6F
:105A0000252E3266000000007370643A252E32663F
:105A1000000000005671203A252E3266000000007A
:105A2000016890F83820097C12FB01F1C900406B35
:105A3000FAF77CBD2DE9F8431C4680461019401C3E
:105A400080B200900819401C83B21546101B82B228
:105A50000E46081B81B2089F404600F0B9F80028A6
:105A600006D023462A4631464046009700F0D0F93A
:105A7000BDE8F8832DE9F041044690F870001F4618
:105A800015460E4630B1012809D002280CD0032853
:105A900015D10FE0E16D20468847284408E0E16D0C
:105AA00020468847301A09E0E16D20468847281AC9
:105AB00085B204E0E16D20468847304486B228462E
:105AC000A4F86460A4F8660039460025204600F07A
:105AD00081FB010003D0204600F0ACFA85B22846D5
